{
  "_format": "hh-sol-artifact-1",
  "contractName": "Tracking",
  "sourceName": "contracts/Tracking.sol",
  "abi": [
    {
      "inputs": [],
      "stateMutability": "nonpayable",
      "type": "constructor"
    },
    {
      "anonymous": false,
      "inputs": [
        {
          "indexed": true,
          "internalType": "address",
          "name": "sender",
          "type": "address"
        },
        {
          "indexed": true,
          "internalType": "address",
          "name": "receiver",
          "type": "address"
        },
        {
          "indexed": false,
          "internalType": "uint256",
          "name": "pickupTime",
          "type": "uint256"
        },
        {
          "indexed": false,
          "internalType": "uint256",
          "name": "deliveryTime",
          "type": "uint256"
        },
        {
          "indexed": false,
          "internalType": "uint256",
          "name": "distance",
          "type": "uint256"
        },
        {
          "indexed": false,
          "internalType": "uint256",
          "name": "price",
          "type": "uint256"
        }
      ],
      "name": "ShipmentCreated",
      "type": "event"
    },
    {
      "anonymous": false,
      "inputs": [
        {
          "indexed": true,
          "internalType": "address",
          "name": "sender",
          "type": "address"
        },
        {
          "indexed": true,
          "internalType": "address",
          "name": "receiver",
          "type": "address"
        },
        {
          "indexed": false,
          "internalType": "uint256",
          "name": "deliveryTime",
          "type": "uint256"
        }
      ],
      "name": "ShipmentDelivered",
      "type": "event"
    },
    {
      "anonymous": false,
      "inputs": [
        {
          "indexed": true,
          "internalType": "address",
          "name": "sender",
          "type": "address"
        },
        {
          "indexed": true,
          "internalType": "address",
          "name": "receiver",
          "type": "address"
        },
        {
          "indexed": false,
          "internalType": "uint256",
          "name": "amount",
          "type": "uint256"
        }
      ],
      "name": "ShipmentPaid",
      "type": "event"
    },
    {
      "anonymous": false,
      "inputs": [
        {
          "indexed": true,
          "internalType": "address",
          "name": "sender",
          "type": "address"
        },
        {
          "indexed": true,
          "internalType": "address",
          "name": "receiver",
          "type": "address"
        },
        {
          "indexed": false,
          "internalType": "uint256",
          "name": "pickupTime",
          "type": "uint256"
        }
      ],
      "name": "ShipmentinTransit",
      "type": "event"
    },
    {
      "inputs": [
        {
          "internalType": "address",
          "name": "_sender",
          "type": "address"
        },
        {
          "internalType": "address",
          "name": "_receiver",
          "type": "address"
        },
        {
          "internalType": "uint256",
          "name": "_index",
          "type": "uint256"
        }
      ],
      "name": "completeShipment",
      "outputs": [],
      "stateMutability": "nonpayable",
      "type": "function"
    },
    {
      "inputs": [
        {
          "internalType": "address",
          "name": "_receiver",
          "type": "address"
        },
        {
          "internalType": "uint256",
          "name": "_pickupTime",
          "type": "uint256"
        },
        {
          "internalType": "uint256",
          "name": "_distance",
          "type": "uint256"
        },
        {
          "internalType": "uint256",
          "name": "_price",
          "type": "uint256"
        }
      ],
      "name": "createShipment",
      "outputs": [],
      "stateMutability": "payable",
      "type": "function"
    },
    {
      "inputs": [],
      "name": "getAllTransactions",
      "outputs": [
        {
          "components": [
            {
              "internalType": "address",
              "name": "sender",
              "type": "address"
            },
            {
              "internalType": "address",
              "name": "receiver",
              "type": "address"
            },
            {
              "internalType": "uint256",
              "name": "pickupTime",
              "type": "uint256"
            },
            {
              "internalType": "uint256",
              "name": "deliveryTime",
              "type": "uint256"
            },
            {
              "internalType": "uint256",
              "name": "distance",
              "type": "uint256"
            },
            {
              "internalType": "uint256",
              "name": "price",
              "type": "uint256"
            },
            {
              "internalType": "enum Tracking.ShipmentStatus",
              "name": "status",
              "type": "uint8"
            },
            {
              "internalType": "bool",
              "name": "ispaid",
              "type": "bool"
            }
          ],
          "internalType": "struct Tracking.TypeShipment[]",
          "name": "",
          "type": "tuple[]"
        }
      ],
      "stateMutability": "view",
      "type": "function"
    },
    {
      "inputs": [
        {
          "internalType": "address",
          "name": "_sender",
          "type": "address"
        },
        {
          "internalType": "uint256",
          "name": "_index",
          "type": "uint256"
        }
      ],
      "name": "getShipment",
      "outputs": [
        {
          "internalType": "address",
          "name": "",
          "type": "address"
        },
        {
          "internalType": "address",
          "name": "",
          "type": "address"
        },
        {
          "internalType": "uint256",
          "name": "",
          "type": "uint256"
        },
        {
          "internalType": "uint256",
          "name": "",
          "type": "uint256"
        },
        {
          "internalType": "uint256",
          "name": "",
          "type": "uint256"
        },
        {
          "internalType": "uint256",
          "name": "",
          "type": "uint256"
        },
        {
          "internalType": "enum Tracking.ShipmentStatus",
          "name": "",
          "type": "uint8"
        },
        {
          "internalType": "bool",
          "name": "",
          "type": "bool"
        }
      ],
      "stateMutability": "view",
      "type": "function"
    },
    {
      "inputs": [
        {
          "internalType": "address",
          "name": "_sender",
          "type": "address"
        }
      ],
      "name": "getShipmentsCount",
      "outputs": [
        {
          "internalType": "uint256",
          "name": "",
          "type": "uint256"
        }
      ],
      "stateMutability": "view",
      "type": "function"
    },
    {
      "inputs": [],
      "name": "shipmentCount",
      "outputs": [
        {
          "internalType": "uint256",
          "name": "",
          "type": "uint256"
        }
      ],
      "stateMutability": "view",
      "type": "function"
    },
    {
      "inputs": [
        {
          "internalType": "address",
          "name": "",
          "type": "address"
        },
        {
          "internalType": "uint256",
          "name": "",
          "type": "uint256"
        }
      ],
      "name": "shipments",
      "outputs": [
        {
          "internalType": "address",
          "name": "sender",
          "type": "address"
        },
        {
          "internalType": "address",
          "name": "receiver",
          "type": "address"
        },
        {
          "internalType": "uint256",
          "name": "pickupTime",
          "type": "uint256"
        },
        {
          "internalType": "uint256",
          "name": "deliveryTime",
          "type": "uint256"
        },
        {
          "internalType": "uint256",
          "name": "distance",
          "type": "uint256"
        },
        {
          "internalType": "uint256",
          "name": "price",
          "type": "uint256"
        },
        {
          "internalType": "enum Tracking.ShipmentStatus",
          "name": "status",
          "type": "uint8"
        },
        {
          "internalType": "bool",
          "name": "ispaid",
          "type": "bool"
        }
      ],
      "stateMutability": "view",
      "type": "function"
    },
    {
      "inputs": [
        {
          "internalType": "address",
          "name": "_sender",
          "type": "address"
        },
        {
          "internalType": "address",
          "name": "_receiver",
          "type": "address"
        },
        {
          "internalType": "uint256",
          "name": "_index",
          "type": "uint256"
        }
      ],
      "name": "startShipment",
      "outputs": [],
      "stateMutability": "nonpayable",
      "type": "function"
    }
  ],
  "bytecode": "0x608060405234801561001057600080fd5b506000600181905550611c78806100286000396000f3fe60806040526004361061007b5760003560e01c80637ff5265d1161004e5780637ff5265d146101555780638365da541461017e578063aace20b7146101c2578063cbc4b181146101ed5761007b565b8063179a878c1461008057806327506f53146100a957806341fdc195146100d45780635667e02f14610111575b600080fd5b34801561008c57600080fd5b506100a760048036038101906100a2919061149c565b610209565b005b3480156100b557600080fd5b506100be6106c1565b6040516100cb919061194e565b60405180910390f35b3480156100e057600080fd5b506100fb60048036038101906100f69190611473565b610897565b6040516101089190611a30565b60405180910390f35b34801561011d57600080fd5b50610138600480360381019061013391906114eb565b6108e2565b60405161014c9897969594939291906118d0565b60405180910390f35b34801561016157600080fd5b5061017c6004803603810190610177919061149c565b6109a1565b005b34801561018a57600080fd5b506101a560048036038101906101a091906114eb565b610ce1565b6040516101b99897969594939291906118d0565b60405180910390f35b3480156101ce57600080fd5b506101d7610f3d565b6040516101e49190611a30565b60405180910390f35b61020760048036038101906102029190611527565b610f43565b005b60008060008573ffffffffffffffffffffffffffffffffffffffff1673ffffffffffffffffffffffffffffffffffffffff1681526020019081526020016000208281548110610281577f4e487b7100000000000000000000000000000000000000000000000000000000600052603260045260246000fd5b906000526020600020906007020190506000600283815481106102cd577f4e487b7100000000000000000000000000000000000000000000000000000000600052603260045260246000fd5b906000526020600020906007020190508373ffffffffffffffffffffffffffffffffffffffff168260010160009054906101000a900473ffffffffffffffffffffffffffffffffffffffff1673ffffffffffffffffffffffffffffffffffffffff161461036f576040517f08c379a0000000000000000000000000000000000000000000000000000000008152600401610366906119b0565b60405180910390fd5b600160028111156103a9577f4e487b7100000000000000000000000000000000000000000000000000000000600052602160045260246000fd5b8260060160009054906101000a900460ff1660028111156103f3577f4e487b7100000000000000000000000000000000000000000000000000000000600052602160045260246000fd5b14610433576040517f08c379a000000000000000000000000000000000000000000000000000000000815260040161042a90611970565b60405180910390fd5b8160060160019054906101000a900460ff1615610485576040517f08c379a000000000000000000000000000000000000000000000000000000000815260040161047c90611a10565b60405180910390fd5b60028260060160006101000a81548160ff021916908360028111156104d3577f4e487b7100000000000000000000000000000000000000000000000000000000600052602160045260246000fd5b021790555060028160060160006101000a81548160ff02191690836002811115610526577f4e487b7100000000000000000000000000000000000000000000000000000000600052602160045260246000fd5b02179055504281600301819055504282600301819055506000826005015490508260000160009054906101000a900473ffffffffffffffffffffffffffffffffffffffff1673ffffffffffffffffffffffffffffffffffffffff166108fc829081150290604051600060405180830381858888f193505050501580156105b0573d6000803e3d6000fd5b5060018360060160016101000a81548160ff02191690831515021790555060018260060160016101000a81548160ff0219169083151502179055508473ffffffffffffffffffffffffffffffffffffffff168673ffffffffffffffffffffffffffffffffffffffff167f3746ccceb54f44c9b0ee0120e596168d07ec9f6ca303cfdd9810d3b2e2686a2e856003015460405161064c9190611a30565b60405180910390a38473ffffffffffffffffffffffffffffffffffffffff168673ffffffffffffffffffffffffffffffffffffffff167f2b6f2473aebafaf8d0889669490135928ec4454d2e29a103fd39693bbca6aef1836040516106b19190611a30565b60405180910390a3505050505050565b60606002805480602002602001604051908101604052809291908181526020016000905b8282101561088e5783829060005260206000209060070201604051806101000160405290816000820160009054906101000a900473ffffffffffffffffffffffffffffffffffffffff1673ffffffffffffffffffffffffffffffffffffffff1673ffffffffffffffffffffffffffffffffffffffff1681526020016001820160009054906101000a900473ffffffffffffffffffffffffffffffffffffffff1673ffffffffffffffffffffffffffffffffffffffff1673ffffffffffffffffffffffffffffffffffffffff168152602001600282015481526020016003820154815260200160048201548152602001600582015481526020016006820160009054906101000a900460ff166002811115610828577f4e487b7100000000000000000000000000000000000000000000000000000000600052602160045260246000fd5b6002811115610860577f4e487b7100000000000000000000000000000000000000000000000000000000600052602160045260246000fd5b81526020016006820160019054906101000a900460ff161515151581525050815260200190600101906106e5565b50505050905090565b60008060008373ffffffffffffffffffffffffffffffffffffffff1673ffffffffffffffffffffffffffffffffffffffff168152602001908152602001600020805490509050919050565b600060205281600052604060002081815481106108fe57600080fd5b9060005260206000209060070201600091509150508060000160009054906101000a900473ffffffffffffffffffffffffffffffffffffffff16908060010160009054906101000a900473ffffffffffffffffffffffffffffffffffffffff16908060020154908060030154908060040154908060050154908060060160009054906101000a900460ff16908060060160019054906101000a900460ff16905088565b60008060008573ffffffffffffffffffffffffffffffffffffffff1673ffffffffffffffffffffffffffffffffffffffff1681526020019081526020016000208281548110610a19577f4e487b7100000000000000000000000000000000000000000000000000000000600052603260045260246000fd5b90600052602060002090600702019050600060028381548110610a65577f4e487b7100000000000000000000000000000000000000000000000000000000600052603260045260246000fd5b906000526020600020906007020190508373ffffffffffffffffffffffffffffffffffffffff168260010160009054906101000a900473ffffffffffffffffffffffffffffffffffffffff1673ffffffffffffffffffffffffffffffffffffffff1614610b07576040517f08c379a0000000000000000000000000000000000000000000000000000000008152600401610afe90611990565b60405180910390fd5b60006002811115610b41577f4e487b7100000000000000000000000000000000000000000000000000000000600052602160045260246000fd5b8260060160009054906101000a900460ff166002811115610b8b577f4e487b7100000000000000000000000000000000000000000000000000000000600052602160045260246000fd5b14610bcb576040517f08c379a0000000000000000000000000000000000000000000000000000000008152600401610bc2906119f0565b60405180910390fd5b60018260060160006101000a81548160ff02191690836002811115610c19577f4e487b7100000000000000000000000000000000000000000000000000000000600052602160045260246000fd5b021790555060018160060160006101000a81548160ff02191690836002811115610c6c577f4e487b7100000000000000000000000000000000000000000000000000000000600052602160045260246000fd5b02179055508373ffffffffffffffffffffffffffffffffffffffff168573ffffffffffffffffffffffffffffffffffffffff167f8153c06c6e97a1970ffaed66e29e14a35fd31ce01afe3d9c5fa2eda3532877658460020154604051610cd29190611a30565b60405180910390a35050505050565b60008060008060008060008060008060008c73ffffffffffffffffffffffffffffffffffffffff1673ffffffffffffffffffffffffffffffffffffffff1681526020019081526020016000208a81548110610d65577f4e487b7100000000000000000000000000000000000000000000000000000000600052603260045260246000fd5b9060005260206000209060070201604051806101000160405290816000820160009054906101000a900473ffffffffffffffffffffffffffffffffffffffff1673ffffffffffffffffffffffffffffffffffffffff1673ffffffffffffffffffffffffffffffffffffffff1681526020016001820160009054906101000a900473ffffffffffffffffffffffffffffffffffffffff1673ffffffffffffffffffffffffffffffffffffffff1673ffffffffffffffffffffffffffffffffffffffff168152602001600282015481526020016003820154815260200160048201548152602001600582015481526020016006820160009054906101000a900460ff166002811115610e9e577f4e487b7100000000000000000000000000000000000000000000000000000000600052602160045260246000fd5b6002811115610ed6577f4e487b7100000000000000000000000000000000000000000000000000000000600052602160045260246000fd5b81526020016006820160019054906101000a900460ff1615151515815250509050806000015181602001518260400151836060015184608001518560a001518660c001518760e0015198509850985098509850985098509850509295985092959890939650565b60015481565b803414610f85576040517f08c379a0000000000000000000000000000000000000000000000000000000008152600401610f7c906119d0565b60405180910390fd5b60006040518061010001604052803373ffffffffffffffffffffffffffffffffffffffff1681526020018673ffffffffffffffffffffffffffffffffffffffff168152602001858152602001600081526020018481526020018381526020016000600281111561101e577f4e487b7100000000000000000000000000000000000000000000000000000000600052602160045260246000fd5b81526020016000151581525090506000803373ffffffffffffffffffffffffffffffffffffffff1673ffffffffffffffffffffffffffffffffffffffff16815260200190815260200160002081908060018154018082558091505060019003906000526020600020906007020160009091909190915060008201518160000160006101000a81548173ffffffffffffffffffffffffffffffffffffffff021916908373ffffffffffffffffffffffffffffffffffffffff16021790555060208201518160010160006101000a81548173ffffffffffffffffffffffffffffffffffffffff021916908373ffffffffffffffffffffffffffffffffffffffff16021790555060408201518160020155606082015181600301556080820151816004015560a0820151816005015560c08201518160060160006101000a81548160ff0219169083600281111561119b577f4e487b7100000000000000000000000000000000000000000000000000000000600052602160045260246000fd5b021790555060e08201518160060160016101000a81548160ff0219169083151502179055505050600160008154809291906111d590611b59565b919050555060026040518061010001604052803373ffffffffffffffffffffffffffffffffffffffff1681526020018773ffffffffffffffffffffffffffffffffffffffff1681526020018681526020016000815260200185815260200184815260200160006002811115611273577f4e487b7100000000000000000000000000000000000000000000000000000000600052602160045260246000fd5b815260200160001515815250908060018154018082558091505060019003906000526020600020906007020160009091909190915060008201518160000160006101000a81548173ffffffffffffffffffffffffffffffffffffffff021916908373ffffffffffffffffffffffffffffffffffffffff16021790555060208201518160010160006101000a81548173ffffffffffffffffffffffffffffffffffffffff021916908373ffffffffffffffffffffffffffffffffffffffff16021790555060408201518160020155606082015181600301556080820151816004015560a0820151816005015560c08201518160060160006101000a81548160ff021916908360028111156113af577f4e487b7100000000000000000000000000000000000000000000000000000000600052602160045260246000fd5b021790555060e08201518160060160016101000a81548160ff02191690831515021790555050508473ffffffffffffffffffffffffffffffffffffffff163373ffffffffffffffffffffffffffffffffffffffff167f2947526c14d41e26bf003d7ef7432e8c1448e669cef3671dc4d1230c541be643866000878760405161143a9493929190611a4b565b60405180910390a35050505050565b60008135905061145881611c14565b92915050565b60008135905061146d81611c2b565b92915050565b60006020828403121561148557600080fd5b600061149384828501611449565b91505092915050565b6000806000606084860312156114b157600080fd5b60006114bf86828701611449565b93505060206114d086828701611449565b92505060406114e18682870161145e565b9150509250925092565b600080604083850312156114fe57600080fd5b600061150c85828601611449565b925050602061151d8582860161145e565b9150509250929050565b6000806000806080858703121561153d57600080fd5b600061154b87828801611449565b945050602061155c8782880161145e565b935050604061156d8782880161145e565b925050606061157e8782880161145e565b91505092959194509250565b60006115968383611810565b6101008301905092915050565b6115ac81611ada565b82525050565b6115bb81611ada565b82525050565b60006115cc82611aa0565b6115d68185611ab8565b93506115e183611a90565b8060005b838110156116125781516115f9888261158a565b975061160483611aab565b9250506001810190506115e5565b5085935050505092915050565b61162881611aec565b82525050565b61163781611aec565b82525050565b61164681611b35565b82525050565b61165581611b35565b82525050565b61166481611b47565b82525050565b6000611677601583611ac9565b91507f53797374656d204e6f7420696e207472616e73697400000000000000000000006000830152602082019050919050565b60006116b7601083611ac9565b91507f496e76616c6964207265636569766572000000000000000000000000000000006000830152602082019050919050565b60006116f7601083611ac9565b91507f496e76616c6964205265636569766572000000000000000000000000000000006000830152602082019050919050565b6000611737602383611ac9565b91507f5061796d656e7420616d6f756e74206d757374206d617463682074686520707260008301527f69636500000000000000000000000000000000000000000000000000000000006020830152604082019050919050565b600061179d601b83611ac9565b91507f536869706d656e7420616c726561647920696e207472616e73697400000000006000830152602082019050919050565b60006117dd601883611ac9565b91507f536869706d656e7420697320616c7265616479207061696400000000000000006000830152602082019050919050565b6101008201600082015161182760008501826115a3565b50602082015161183a60208501826115a3565b50604082015161184d60408501826118b2565b50606082015161186060608501826118b2565b50608082015161187360808501826118b2565b5060a082015161188660a08501826118b2565b5060c082015161189960c085018261163d565b5060e08201516118ac60e085018261161f565b50505050565b6118bb81611b2b565b82525050565b6118ca81611b2b565b82525050565b6000610100820190506118e6600083018b6115b2565b6118f3602083018a6115b2565b61190060408301896118c1565b61190d60608301886118c1565b61191a60808301876118c1565b61192760a08301866118c1565b61193460c083018561164c565b61194160e083018461162e565b9998505050505050505050565b6000602082019050818103600083015261196881846115c1565b905092915050565b600060208201905081810360008301526119898161166a565b9050919050565b600060208201905081810360008301526119a9816116aa565b9050919050565b600060208201905081810360008301526119c9816116ea565b9050919050565b600060208201905081810360008301526119e98161172a565b9050919050565b60006020820190508181036000830152611a0981611790565b9050919050565b60006020820190508181036000830152611a29816117d0565b9050919050565b6000602082019050611a4560008301846118c1565b92915050565b6000608082019050611a6060008301876118c1565b611a6d602083018661165b565b611a7a60408301856118c1565b611a8760608301846118c1565b95945050505050565b6000819050602082019050919050565b600081519050919050565b6000602082019050919050565b600082825260208201905092915050565b600082825260208201905092915050565b6000611ae582611b0b565b9050919050565b60008115159050919050565b6000819050611b0682611c00565b919050565b600073ffffffffffffffffffffffffffffffffffffffff82169050919050565b6000819050919050565b6000611b4082611af8565b9050919050565b6000611b5282611b2b565b9050919050565b6000611b6482611b2b565b91507fffffffffffffffffffffffffffffffffffffffffffffffffffffffffffffffff821415611b9757611b96611ba2565b5b600182019050919050565b7f4e487b7100000000000000000000000000000000000000000000000000000000600052601160045260246000fd5b7f4e487b7100000000000000000000000000000000000000000000000000000000600052602160045260246000fd5b60038110611c1157611c10611bd1565b5b50565b611c1d81611ada565b8114611c2857600080fd5b50565b611c3481611b2b565b8114611c3f57600080fd5b5056fea264697066735822122022f46f148e2621449b85ea29eeb9102cd71d6f1b3624f24f091c5c9b8217a0be64736f6c63430008000033",
  "linkReferences": {},
  "deployedLinkReferences": {}
}